:100000000C94E4150C9415160C9415160C941516F6
:100010000C9415160C9415160C9415160C941516B4
:100020000C9415160C9415160C9415160C941516A4
:100030000C9415160C9415160C9415160C94151694
:100040000C9415160C9464500C9415160C941516FB
:100050000C9415160C9415160C940BAD0C94BDA0B5
:100060000C9415160C943D2F0C9415160C94151623
:100070000C9415160C9415160C9415160C94151654
:100080000C9415160C9415160C9415160C94151644
:100090000C9415160C9415160C9415160C94151634
:1000A0000C9415160C9415160C9415160C94151624
:1000B0000C9415160C9415160C9415160C94151614
:1000C0000C9415160C9415160C9415160C94151604
:1000D0000C9415160C9415160C9415160C941516F4
:1000E0000C941516612966296B2975297F29F82931
:1000F000892991299929A329AD29B729C629D02968
:10010000F829DA29E429EE29732F7A2F8E2F9B2FD5
:10011000A52FC02FAA2FC02FAF2FB42FC02FBC2FB9
:10012000ED6D446E686FBD6F09715E716171D39F33
:10013000D69FC59FC99FCF9F0DA0DA9FDE9FE49FEA
:10014000E89FEC9FF29FF69FFA9F0DA000A004A0ED
:1001500008A005A84CCDB2D44EB93836A9020C502F
:10016000B9918688083CA6AAAA2ABE000000803F52
:1001700008000000BE922449123EABAAAA2ABECDB6
:10018000CCCC4C3E00000080BEABAAAAAA3E000028
:100190000000BF000000803F000000000008417820
:1001A000D3BB4387D1133D190E3CC3BD4282AD2B57
:1001B0003E68EC8276BED98FE1A93E4C80EFFFBE4F
:1001C00001C4FF7F3F000000000007634236B79B79
:1001D000D8A71A39685618AEBAAB558C1D3CB7CCA7
:1001E0005763BD6DEDFD753EF6177231BF0000001F
:1001F000803F4E414E494E495459494E46CDCCCC94
:100200003D0AD7233C17B7D13877CC2B329595E6EA
:10021000241FB14F0A000020410000C84200401CCA
:100220004620BCBE4CCA1B0E5AAEC59D74434F4DF2
:100230004D554E49434154494F4E00445259525531
:100240004E004552524F525300494E464F004543CF
:10025000484F00205A3A200020593A200042656455
:1002600020583A20004D65736820706F696E7420C5
:1002700063616E6E6F74206265207265736F6C7659
:1002800065640A005072696E742074696D653A2065
:100290000050726F7465637465642050696E0A0063
:1002A0006F6E2E006F66662E0055424C20446562CC
:1002B000756720466C6167207475726E65642000F6
:1002C0006D0046696C616D656E7420757365643A86
:1002D000200053746174733A20002C204C6F6E67B9
:1002E000657374206A6F623A2000546F74616C20E9
:1002F00074696D653A200053746174733A20002C60
:10030000204661696C65643A20002C2046696E695C
:10031000736865643A20005072696E74733A200005
:1003200053746174733A20004E02490242023B0248
:100330002D026F66660044454255473A004D313103
:10034000332053006F6B0020573A0020573A004388
:1003500061703A454D455247454E43595F504152B1
:100360005345523A310A004361703A434153455F65
:100370004C494748545F4252494748544E455353AD
:100380003A300A004361703A544F47474C455F4C3E
:1003900049474854533A300A004361703A534F4634
:1003A00054574152455F504F5745523A300A004327
:1003B00061703A4C4556454C494E475F4441544163
:1003C0003A310A004361703A5A5F50524F42453AFF
:1003D000310A004361703A4155544F4C4556454CE3
:1003E0003A310A004361703A5052494E545F4A4FC5
:1003F000423A310A004361703A50524F47524553D6
:10040000533A300A004361703A4155544F524550B7
:100410004F52545F54454D503A310A004361703A8F
:10042000454550524F4D3A310A004649524D5741C9
:1004300052455F4E414D453A4D61726C696E2031B7
:100440002E312E3520284769746875622920534F54
:10045000555243455F434F44455F55524C3A68748B
:100460007470733A2F2F6769746875622E636F6DAD
:100470002F526F626F33442F4D61726C696E205240
:1004800032204272616E63682050524F544F434F86
:100490004C5F56455253494F4E3A312E30204D4114
:1004A0004348494E455F545950453A526F626F4D2B
:1004B000422045585452554445525F434F554E547F
:1004C0003A3120555549443A31353463393539315B
:1004D0002D383266392D346638662D386333622DF7
:1004E0006165363062643535343031630A002F2F50
:1004F00020007A5F6D61783A20007A5F6D696E3A0C
:100500002000795F6D61783A2000785F6D696E3AFE
:1005100020005265706F7274696E6720656E647337
:10052000746F70207374617475730A00536574740A
:10053000696E672054726176656C20416363656CF7
:1005400065726174696F6E3A200053657474696EE8
:1005500067205265747261637420416363656C65E2
:10056000726174696F6E3A200053657474696E67C6
:10057000205072696E7420416363656C65726174AA
:10058000696F6E3A200053657474696E672050720B
:10059000696E7420616E642054726176656C2041CE
:1005A0006363656C65726174696F6E3A2000205AEE
:1005B00000205900580020204D61783A2000205A30
:1005C00000205900580020204D696E3A20004F6EDF
:1005D00020004F666600536F667420656E64737406
:1005E0006F70733A2000000136372603FF3C3D3818
:1005F000FF0E24221E1312FFFF0807FFFF051A1C1F
:1006000018FFFF08440AFF43FFFFFFFFFFFF2064BE
:100610003A0020693A0020703A0043290A006162DA
:100620006C656420286D696E2074656D70200043D0
:100630006F6C64206578747275646573206172658F
:1006400020004F66660A0046616465204865696758
:1006500068742000426564204C6576656C696E673D
:1006600020004661696C656420746F20656E61626C
:100670006C6520426564204C6576656C696E670A1E
:100680000075626C2E73746174652E73746F726181
:1006900067655F736C6F74203D200055424C5F4D61
:1006A0004553485F56414C4944203D20003F557317
:1006B00065203020746F20003F496E76616C69645C
:1006C0002073746F7261676520736C6F742E0A00FB
:1006D0003F454550524F4D2073746F7261676520DE
:1006E0006E6F7420617661696C61626C652E0A00C0
:1006F0004D65736820706F696E742063616E6E6FF4
:1007000074206265207265736F6C7665640A004DB3
:1007100034323120696E636F727265637420706168
:1007200072616D657465722075736167650A005446
:100730006F6F206661722066726F6D2072656665EC
:1007400072656E636520706F696E740A003A2000EE
:100750007A5F6D696E3A20202D3230207A5F6D61AC
:10076000783A20203230005A204F66667365742034
:10077000004E6F2063617365206C696768740A00BE
:100780004163746976652045787472756465723A60
:100790002000556E6B6E6F776E20636F6D6D616EAE
:1007A000643A2022003F537065636966696564207E
:1007B000582C5920636F6F7264696E617465206F85
:1007C0007574206F6620626F756E64732E0A003F29
:1007D00028522965706561742076616C7565206E9C
:1007E0006F7420706C61757369626C653B206D7508
:1007F0007374206265206174206C656173742031AC
:100800002E0A003F2852296570656174206D75734A
:10081000742062652073706563696669656420771A
:1008200068656E206E6F74207573696E6720616EE7
:10083000204C43442E0A003F537065636966696526
:1008400064206E6F7A7A6C652074656D7065726174
:1008500074757265206E6F7420706C617573696257
:100860006C652E0A003F5370656369666965642094
:1008700066696C616D656E742073697A65206E6F50
:100880007420706C61757369626C652E0A003F5349
:100890007065636966696564207072696D65206C56
:1008A000656E677468206E6F7420706C6175736913
:1008B000626C652E0A003F5072696D65206C656E32
:1008C000677468206D75737420626520737065634A
:1008D0006966696564207768656E206E6F7420753F
:1008E00073696E6720616E204C43442E0A003F53AB
:1008F0007065636966696564206E6F7A7A6C6520DD
:1009000073697A65206E6F7420706C6175736962AB
:100910006C652E0A003F53706563696669656420E3
:1009200052657472616374696F6E204D756C746981
:10093000706C696572206E6F7420706C617573697C
:10094000626C652E0A003F52657472616374696F50
:100950006E204D756C7469706C696572206D75736D
:1009600074206265207370656369666965642E0A28
:10097000003F537065636966696564206C617965E1
:100980007220686569676874206E6F7420706C618E
:10099000757369626C652E0A003F53706563696602
:1009A000696564206265642074656D706572617448
:1009B000757265206E6F7420706C61757369626CFE
:1009C000652E0A00436F6E6E656374696E672076EC
:1009D0006572746963616C206C696E652E002C20F1
:1009E00065793D0029202D3E202865783D002C208A
:1009F00073793D0020436F6E6E656374696E672086
:100A00007769746820766572746963616C206C69BB
:100A10006E65202873783D002C2065793D002920E3
:100A20002D3E202865783D002C2073793D00204321
:100A30006F6E6E656374696E67207769746820688D
:100A40006F72697A6F6E74616C206C696E652028B4
:100A500073783D002C2079693D00202020446F6987
:100A60006E6720636972636C652061743A20287830
:100A7000693D0047323620636F6D6D616E6420738F
:100A80007461727465642E2057616974696E6720A1
:100A9000666F72206865617465722873292E0A007A
:100AA000696E206D6F76655F746F282920666565B5
:100AB000645F76616C756520666F722058593A00E4
:100AC0004B494C4C45442E20002569730025696D27
:100AD00020256973002569682025696D20256973C3
:100AE00000256964202569682025696D20256973C2
:100AF0000025697920256964202569682025696DAC
:100B00002025697300656E7175657565696E67206E
:100B100022004E6F204C696E65204E756D626572C5
:100B2000207769746820636865636B73756D2C202A
:100B30004C617374204C696E653A20005072696E86
:100B40007465722073746F707065642064756520BD
:100B5000746F206572726F72732E204669782074EC
:100B60006865206572726F7220616E6420757365AE
:100B7000204D39393920746F207265737461727435
:100B80002E202854656D70657261747572652069D8
:100B9000732072657365742E205365742069742008
:100BA00061667465722072657374617274696E67D0
:100BB000290A004E6F20436865636B73756D20775B
:100BC000697468206C696E65206E756D6265722C43
:100BD000204C617374204C696E653A20006368652F
:100BE000636B73756D206D69736D617463682C2020
:100BF0004C617374204C696E653A20004C696E65D7
:100C0000204E756D626572206973206E6F74204C82
:100C1000617374204C696E65204E756D6265722B30
:100C2000312C204C617374204C696E653A20004D64
:100C30003131300020496E76616C696420657874CA
:100C40007275646572200000000000000000000062
:100C500000000000004443000044430000824320A1
:100C600066697273740A005A0059005800486F6D23
:100C700065200050726F62696E67206661696C65FD
:100C8000640A00205A3A200020593A200042656444
:100C900020583A2000000020002300260029002CC4
:100CA000002F0032000001000003010601090105C8
:100CB000050505070508080808020202020A0A08D5
:100CC00008040404040101010101010101030303FB
:100CD0000303030303040707070C0C0C0C0C0C0C98
:100CE0000C0202020206060606060606060B0B0B9F
:100CF0000B0B0B0B0B0102102020080810204010DA
:100D000020408002010201080402010102040810CF
:100D100020408080402010080402018004020180ED
:100D20004020100804020108040201010204081016
:100D3000204080010204081020408000000A0B02BD
:100D4000090C0D0E0807030401000000000000005C
:100D50000000000000000000000000000000000093
:100D60000000000000000012111000000000000050
:100D70000000000000000000000000000000000073
:100D8000004B494C4C45442E2000202D20496E76C6
:100D9000616C6964206578747275646572206E7523
:100DA0006D62657220210A004572726F723A0020EE
:100DB00020506C616E6E657242756666657242792E
:100DC0007465733A20002046726565204D656D6F2D
:100DD00072793A2000436F6D70696C65643A2053F4
:100DE000657020203920323031370A00207C2041C4
:100DF0007574686F723A202842482C205232206362
:100E00006F6E666967290A00323031372D30392D0F
:100E100030382031323A303000204C617374205524
:100E20007064617465643A2000312E312E350A00F9
:100E30004D61726C696E0020536F667477617265E4
:100E40002052657365740A00205761746368646F8B
:100E5000672052657365740A002042726F776E20B6
:100E60006F75742052657365740A00204578746547
:100E7000726E616C2052657365740A00506F7765FD
:100E80007255700A0073746172740A00205A3A0035
:100E900020593A0020583A00656E6473746F70737D
:100EA000206869743A20006563686F3A0024F4D4BE
:100EB0003050C38E20C2A24017828B7011127A91DB
:100EC0000D816CD90AA861E108C7586607615143D2
:100ED000061E4B5D05C145A7041A411104093D9842
:100EE00003713931034036DB0265339102D430544B
:100EF00002802E1D02632CEE01752AC501B028A0C8
:100F000001102781018F2564012B244B01E022343D
:100F100001AC211F018D200D01801FFC00841EEDFE
:100F200000971DDF00B81CD200E61BC600201BBCCA
:100F300000641AB200B219A8000A19A0006A189930
:100F400000D117910040178B00B516840031167E32
:100F500000B31579003A157300C7146F0058146A6E
:100F600000EE1366008813630025135E00C7125B52
:100F7000006C12570015125400C111510070114F2E
:100F80000021114B00D61049008D10470046104437
:100F90000002104200C00F4000800F3E00420F3C94
:100FA00000060F3B00CB0E3800930E37005C0E3569
:100FB00000270E3400F30D3200C10D3100900D30CA
:100FC00000600D2E00320D2D00050D2C00D90C2BCC
:100FD00000AE0C2900850C29005C0C2700350C277D
:100FE000000E0C2600E80B2400C40B2400A00B23E9
:100FF000007D0B23005A0B2100390B2100180B2018
:1010000000F80A1F00D90A1E00BB0A1E009D0A1D17
:1010100000800A1D00630A1C00470A1B002C0A1BE3
:1010200000110A1A00F7091A00DD091900C409198C
:1010300000AB091900920917007B09180063091712
:10104000004C09160036091600200916000A091579
:1010500000F5081500E0081400CC081400B80814C6
:1010600000A4081400900813007D0812006B0813F8
:101070000058081200460812003408110023081115
:10108000001208110001081100F0071000E007101D
:1010900000D0071000C0071000B0070F00A1071014
:1010A0000091070E0083070F0074070F0065070EFD
:1010B0000057070E0049070E003B070D002E070ED4
:1010C0000020070D0013070D0006070D00F9060CA0
:1010D00000ED060D00E0060C00D4060C00C8060C5E
:1010E00000BC060C00B0060C00A4060B0099060C10
:1010F000008D060B0082060B0077060B006C060BBA
:101100000061060A0057060B004C060A0042060A58
:101110000038060A002E060A0024060A001A060AEB
:10112000001006090007060A00FD050900F405097C
:1011300000EB050900E2050900D9050900D0050901
:1011400000C7050900BE050900B5050800AD050882
:1011500000A50509009C050800940508008C0508F9
:1011600000840508007C050800740508006C05076C
:1011700000650508005D050700560508004E0507D7
:10118000004705070040050800380507003105073E
:10119000002A050700230507001C050600160507A1
:1011A000000F0507000805060002050700FB0406FE
:1011B00000F5040700EE040600E8040600E2040758
:1011C00000DB040600D5040600CF040600C90406AF
:1011D00000C3040600BD040600B7040600B1040500
:1011E00000AC040600A6040600A00405009B04064B
:1011F0000095040500900406008A04050085040596
:1012000000800406007A04050075040500700405DA
:10121000006B04050066040500610405005C04051C
:101220000057040500520405004D0405004804055C
:1012300000430405003E0404003A0405003504059B
:1012400000300404002C04050027040400230405D6
:10125000001E0404001A040400160405001104040E
:10126000000D040400090405000404040000040443
:1012700000FC030400F8030400F4030400F003047A
:1012800000EC030400E8030400E4030400E00304AA
:1012900000DC030400D8030400D4030400D00304DA
:1012A00000CC030400C8030300C503030024F404B6
:1012B000D9201BC40C5C0E9804C4095F0265077139
:1012C00001F405F900FB04B30048048700C1036979
:1012D000005803550003034500BE023A0084023162
:1012E0000053022A002902250004022000E4011C08
:1012F00000C8011900AF0117009801140084011300
:1013000000710110006101100051010E0043010D38
:101310000036010B002B010B0020010B0015010909
:10132000000C01090003010800FB000800F300089D
:1013300000EB000700E4000600DE000600D800060F
:1013400000D2000600CC000500C7000500C2000561
:1013500000BD000400B9000400B5000400B10004A1
:1013600000AD000400A9000400A5000300A20003D2
:10137000009F0004009B00030098000300950002FA
:101380000093000300900003008D0002008B000317
:101390000088000200860002008400030081000231
:1013A000007F0002007D0002007B00020079000245
:1013B0000077000100760002007400020072000154
:1013C00000710002006F0002006D0001006C00025D
:1013D000006A000100690002006700010066000168
:1013E000006500010064000200620001006100016C
:1013F00000600001005F0002005D0001005C000170
:10140000005B0001005A0001005900010058000172
:101410000057000100560001005500010054000172
:101420000053000000530001005200010051000170
:1014300000500001004F0001004E0000004E00016E
:10144000004D0001004C0001004B0000004B00016A
:10145000004A000100490001004800000048000166
:101460000047000100460000004600010045000062
:10147000004500010044000100430000004300015A
:101480000042000000420001004100000041000154
:1014900000400001003F0000003F0001003E00004E
:1014A000003E0001003D0000003D0001003C000046
:1014B000003C0000003C0001003B0000003B00013C
:1014C000003A0000003A0001003900000039000134
:1014D000003800000038000000380001003700002C
:1014E0000037000100360000003600000036000121
:1014F0000035000000350000003500010034000018
:10150000003400000034000100330000003300000C
:101510000033000100320000003200000032000100
:1015200000310000003100000031000100300000F7
:101530000030000000300001002F0000002F0000EC
:10154000002F0000002F0001002E0000002E0000E0
:10155000002E0001002D0000002D0000002D0000D5
:10156000002D0001002C0000002C0000002C0000C9
:10157000002C0001002B0000002B0000002B0000BD
:10158000002B0001002A0000002A0000002A0000B1
:10159000002A0001002900000029000000290000A5
:1015A0000029000000290001002800000028000098
:1015B000002800000028000000280001002700008B
:1015C000002700000027000000270000002700017E
:1015D0000026000000260000002600000026000073
:1015E0000026000100250000002500000025000065
:1015F0000025000000250000002500010024000057
:101600000024000000240000002400000024000149
:10161000002300000023000000230000002300003E
:10162000002300000023000000230001002200002E
:101630000022000000220000002200000022000022
:101640000022000100210000002100000021000014
:101650000021000000210000002100000021000105
:1016600000200000002000000020000000200000FA
:1016700000200000002000000020000000200001E9
:10168000001F0000001F0000001F0000001F0000DE
:10169000001F0000001F0000001F0001001E0000CE
:1016A000001E0000001E0000001E000000626564B5
:1016B0000A002C2073797374656D2073746F7070D9
:1016C000656421204865617465725F49443A200071
:1016D00048656174696E67206661696C656400487D
:1016E000656174696E67206661696C656400486550
:1016F0006174696E67206661696C65640048656144
:1017000074696E67206661696C6564003002B400BC
:10171000300D8C00900E87005010820020127D004A
:1017200080147800A016730060196E00E01B690039
:10173000001F6400B0215F0090245A00502755001C
:10174000302A5000E02C4B00602F460090314100C1
:1017500060333C0090343700B036320030382D0012
:10176000E0392800203B2300203C1E00103D1900DA
:10177000B03D1400303E0F00903E0A00203F0000B4
:10178000F03FD8FF4572726F722077726974696E8C
:101790006720746F20454550524F4D210A00290A99
:1017A000002062797465733B206372632000536587
:1017B0007474696E67732053746F726564202800B7
:1017C00055424C2053797374656D2072657365744E
:1017D00028290A00206C6F616465642066726F6D51
:1017E0002073746F726167652E0A004D65736820FF
:1017F000002E0A0020696E697469616C697A6564FB
:101800002E0A0A003F43616E277420656E61626C88
:10181000652000202863616C63756C6174656429C0
:10182000210A0020213D2000454550524F4D2043C4
:101830005243206D69736D61746368202D20287395
:10184000746F726564292000290A0020627974652A
:10185000733B2063726320002073746F7265642091
:1018600073657474696E67732072657472696576E6
:101870006564202800204D61726C696E3D563430DD
:10188000290A0028454550524F4D3D0045455052CC
:101890004F4D2076657273696F6E206D69736D614F
:1018A00074636820002C206C79303D003F20696E05
:1018B000206765745F7A5F636F7272656374696FC6
:1018C0006E286C78303D00446F6E652E0A003F55DF
:1018D0007365203020746F20003F496E76616C691B
:1018E000642073746F7261676520736C6F742E0A65
:1018F000003F454550524F4D2073746F72616765CC
:10190000206E6F7420617661696C61626C652E0A6D
:10191000002C20592000203B20582000205A200075
:10192000204A20004D3432312049200047323920EE
:1019300049203939390A00446F6E652E0A003F5537
:101940007365203020746F20003F496E76616C69AA
:10195000642073746F7261676520736C6F742E0AF4
:10196000003F454550524F4D2073746F726167655B
:10197000206E6F7420617661696C61626C652E0AFD
:10198000003F5034206973206F6E6C79206176615E
:10199000696C61626C65207768656E20616E204CB1
:1019A00043442069732070726573656E742E0A005B
:1019B0003F5032206973206F6E6C792061766169C7
:1019C0006C61626C65207768656E20616E204C43A7
:1019D000442069732070726573656E742E0A002945
:1019E0002E0A0A0050726F62696E67204D65736837
:1019F00020506F696E747320436C6F73657374202D
:101A0000746F2028004D65736820696E76616C697B
:101A100064617465642E2050726F62696E67206D18
:101A20006573682E0A004D657368207A65726F656C
:101A3000642E0A0044656661756C742073746F725D
:101A400061676520736C6F7420302073656C65630B
:101A50007465642E0A00417474656D707420746F2F
:101A60002070726F6265206F666620746865206200
:101A700065642E0A004C6F6164696E67207465733B
:101A8000745F7061747465726E2076616C756573D5
:101A90002E0A0A00496E76616C696420746573745D
:101AA0005F7061747465726E2076616C75652E204E
:101AB000282D3120746F2032290A0A004C6F63618F
:101AC00074696F6E7320696E76616C6964617465A8
:101AD000642E0A0A00456E74697265204D6573684C
:101AE00020696E76616C6964617465642E0A0A000F
:101AF00077697468204D3530322C204D3530302CCC
:101B0000204D35303120696E2074686174206F7209
:101B10006465722E0A0A003F596F75206E65656410
:101B200020746F20656E61626C6520796F7572201C
:101B3000454550524F4D20616E6420696E6974694D
:101B4000616C697A652069740A005374616E64611E
:101B5000726420446576696174696F6E3A20004D45
:101B600065616E204D657368204865696768743AE1
:101B7000200023206F662073616D706C65733A20BE
:101B800000202F002042403A0020403A00205A3ADC
:101B90000020593A0020436F756E7420583A002097
:101BA000453A00205A3A0020593A00583A00206439
:101BB0003A0020693A0020703A004B642000236408
:101BC0006566696E65202044454641554C545F006A
:101BD0004B69200023646566696E65202044454694
:101BE00041554C545F004B70200023646566696E5C
:101BF00065202044454641554C545F0050494420DF
:101C00004175746F74756E652066696E6973686579
:101C100064212050757420746865206C6173742091
:101C20004B702C204B6920616E64204B6420636FE5
:101C30006E7374616E74732066726F6D2062656C72
:101C40006F7720696E746F20436F6E666967757277
:101C50006174696F6E2E680A0050494420417574A2
:101C60006F74756E65206661696C656421207469A6
:101C70006D656F75740A00504944204175746F7426
:101C8000756E65206661696C6564212054656D70B0
:101C90006572617475726520746F6F20686967681A
:101CA0000A00204B643A2000204B693A2000204B68
:101CB000703A20000A20436C6173736963205049B5
:101CC00044200A002054753A2000204B753A200029
:101CD000206D61783A2000206D696E3A2000206402
:101CE0003A200020626961733A2000200A004420F3
:101CF000636F6E7374616E743A2000726F746174F6
:101D0000696F6E206D61747269783A005D0A0062D5
:101D1000656420706C616E65206E6F726D616C2001
:101D20003D205B00496E76616C6964206D617020B6
:101D3000747970652E0A0A003F284629616465207F
:101D400068656967687420666F7220426564204C1C
:101D50006576656C20436F7272656374696F6E207F
:101D60006E6F7420706C61757369626C652E0A0AFF
:101D7000003F43616E277420616374697661746506
:101D800020616E64206465616374697661746520A6
:101D90006174207468652073616D652074696D6578
:101DA0002E0A0A00426F7468205820262059206CA1
:101DB0006F636174696F6E73206D757374206265F3
:101DC000207370656369666965642E0A0A003F497D
:101DD0006E76616C696420677269642073697A65E4
:101DE00020284A2920737065636966696564202824
:101DF000322D39292E0A0A003F285029686173655F
:101E00002076616C756520696E76616C6964202846
:101E1000302D36292E0A0A003F2856296572626F36
:101E20007365206C6576656C20697320696D706CD4
:101E300061757369626C652028302D34292E0A0A79
:101E4000003F285229657065746974696F6E20635C
:101E50006F756E7420696E76616C69642028312B11
:101E6000292E0A0A00736176655F75626C5F616393
:101E7000746976655F73746174655F616E645F64D5
:101E8000697361626C656428292063616C6C6564A8
:101E9000206D756C7469706C652074696D65732054
:101EA000696E206120726F772E0A00726573746FFD
:101EB00072655F75626C5F6163746976655F737488
:101EC0006174655F616E645F6C6561766528292069
:101ED00063616C6C656420746F6F206D616E792036
:101EE00074696D65732E0A002073616E69747920C0
:101EF000636865636B73207061737365642E0A0099
:101F0000206D65736865732E0A0A00454550524F6F
:101F10004D2063616E20686F6C642000454550520F
:101F20004F4D206672656520666F722055424C3AAF
:101F300020007A5F76616C75655B5D5B5D2073691F
:101F40007A653A200073697A656F662875626C2934
:101F5000203A20200020746F20004D65736865735F
:101F600020676F2066726F6D200075626C5F7374FE
:101F70006174655F726563757273696F6E5F6368C4
:101F80006B203A0075626C5F73746174655F617495
:101F90005F696E766F636174696F6E203A0020200E
:101FA00073746174653A004B696C6C2070696E20C3
:101FB0006F6E203A00202000592D41786973204D22
:101FC00065736820506F696E74732061743A2000E5
:101FD000202000582D41786973204D65736820508A
:101FE0006F696E74732061743A20004D4553485FE9
:101FF000595F444953542020004D4553485F585F72
:1020000044495354202000475249445F4D41585F92
:10201000504F494E54535F59202000475249445F66
:102020004D41585F504F494E54535F582020005542
:10203000424C5F4D4553485F4D41585F5920202821
:10204000313936202D20283129293D0055424C5F59
:102050004D4553485F4D41585F582020283139364F
:10206000202D20283129293D0055424C5F4D4553F4
:10207000485F4D494E5F592020313D0055424C5F2D
:102080004D4553485F4D494E5F582020313D007A01
:1020900070726F62655F7A6F66667365743A20006E
:1020A00055424C206F626A65637420636F756E746D
:1020B0003A2000204C6F616465642E004D657368A2
:1020C00020004E6F204D657368204C6F616465641D
:1020D0002E0020746F6F206C6F6E672065787472AD
:1020E0007573696F6E2070726576656E7465640ACB
:1020F0000020636F6C6420657874727573696F6E0D
:102100002070726576656E7465640A0020204D3813
:102110003531205A005A2D50726F6265204F666625
:1021200073657420286D6D293A0A00204400204907
:102130000020204D3330342050002044002049003E
:1021400020204D33303120500050494420736574B5
:1021500074696E67733A0A00206D65736865732E43
:102160000A0A00454550524F4D2063616E20686F4A
:102170006C6420007A5F6F66667365743A20000AAB
:10218000416374697665204D65736820536C6F7484
:102190003A2000205A0020204D3432302053003A9B
:1021A0000A00205A0020590020204D323036205895
:1021B00000486F6D65206F66667365743A0A00208B
:1021C0004500205A00205900205800204200205489
:1021D0000020204D323035205300416476616E631B
:1021E00065643A20533C6D696E5F66656564726133
:1021F00074653E20543C6D696E5F74726176656CE7
:102200005F66656564726174653E20423C6D696E0F
:102210005F7365676D656E745F74696D655F6D731F
:102220003E20583C6D61785F78795F6A65726B3EDD
:10223000205A3C6D61785F7A5F6A65726B3E20451B
:102240003C6D61785F655F6A65726B3E0A00205481
:102250000020520020204D32303420500041636372
:10226000656C65726174696F6E2028756E69747330
:102270002F7332293A20503C7072696E745F61632B
:1022800063656C3E20523C726574726163745F6179
:102290006363656C3E20543C74726176656C5F616B
:1022A0006363656C3E0A00204500205A00205900F7
:1022B00020204D3230312058004D6178696D756DA8
:1022C00020416363656C65726174696F6E20287567
:1022D0006E6974732F7332293A0A00204500205A20
:1022E0000020590020204D3230332058004D6178B5
:1022F000696D756D2066656564726174657320280B
:10230000756E6974732F73293A0A00204500205AAC
:102310000020590020204D39322058005374657038
:10232000732070657220756E69743A0A0020204D22
:102330003230302044300A0020204D3230302044EA
:10234000002044697361626C65640A0046696C61CF
:102350006D656E742073657474696E67733A0020DE
:1023600020473231202020203B20556E6974732095
:10237000696E206D6D0A00646F6E650A00496E73A8
:10238000756666696369656E7420646174610A00CC
:102390004578747261706F6C6174696E67206D65E9
:1023A00073682E2E2E000000803F00004642000081
:1023B000C442008012430000434300807343000086
:1023C00092430040AA430080C24300C0DA430000A9
:1023D000F34300A0054400C0114400E01D44000088
:1023E0002A44002036442C79693D002C78315F69FD
:1023F0003D00206F7574206F6620626F756E647388
:1024000020696E207A5F636F7272656374696F6EA4
:102410005F666F725F785F6F6E5F686F72697A6F09
:102420006E74616C5F6D6573685F6C696E65286C56
:1024300078303D0078316C5F690079690000008078
:102440003F000046420000C44200801243000043A7
:102450004300807343000092430040AA430080C2BF
:102460004300C0DA430000F34300A0054400C0115C
:102470004400E01D4400002A44002036442C20790A
:10248000315F693D002C2078693D00206F75742014
:102490006F6620626F756E647320696E207A5F6369
:1024A0006F7272656374696F6E5F666F725F795F7A
:1024B0006F6E5F766572746963616C5F6D6573687A
:1024C0005F6C696E65286C79303D00786900796CC5
:1024D0005F69002D2D2D2D2D2D2D2D2D2D2D2D2DEB
:1024E000002029202020002C20002C20002C20005F
:1024F000202920202064657374696E6174696F6E91
:102500003D2820002C20002C20002C200020202002
:102510002063757272656E743D282000202020664D
:10252000706D6D3D0000002100240027002A002D61
:10253000003000330001010000040107010A01001E
:10254000002200250028002B002E0031003400025C
:10255000010000050108010B0170012C0190012709
:1025600001B0012201C0011D01F001180110021388
:102570000130020E016002090190020401C002FF55
:10258000000003FA004003F5008003F000D003EBE5
:10259000002004E6007004E100E004DC004005D700
:1025A00000C005D2004006CD00D006C8008007C399
:1025B000003008BE00F008B900C009B400B00AAF8E
:1025C00000B00BAA00D00CA500000EA000500F9B7D
:1025D00000C01096005012910000148C00C01587A6
:1025E00000B0178200B0197D00D01B7800001E7368
:1025F0000040206E0090226900F024640040275FB4
:102600000090295A00E02B5500102E500020304B2E
:102610000010324600E033410090353C001037375F
:102620000070383200A0392D00B03A2800A03B23BA
:1026300000603C1E00103D1900903D1400103E0F3C
:1026400000703E0A00C03E0500003F0000403FFB16
:10265000FF803FF6FFC03FF1FF544845524D414CCB
:102660002052554E4157415900546865726D616C56
:102670002052756E61776179004572723A204D493A
:102680004E54454D5020424544004572723A204D0B
:10269000494E54454D50004D494E54454D502074BF
:1026A0007269676765726564004572723A204D41D0
:1026B0005854454D5020424544004572723A204DD1
:1026C000415854454D50004D415854454D5020748B
:1026D000726967676572656400556E6966696564ED
:1026E00020426564204C6576656C696E67006163A5
:1026F000746976652E0A00696E00205379737465DB
:102700006D2076312E30312000202020202E2020F8
:1027100020004E414E004353563A0A0A004C4344AF
:102720003A0A0A003A0A0A0020666F7220000A423A
:10273000656420546F706F677261706879205265AC
:10274000706F7274003F496E737566666963696580
:102750006E7420454550524F4D2073746F726167FF
:102760006520666F722061206D657368206F66203A
:10277000746869732073697A652E0A000400000585
:10278000010003000501000504000000050003002E
:102790003A2000454550524F4D2044756D703A0A1D
:1027A000002066726F6D2063757272656E74206DA5
:1027B0006573682E0A005375627472616374696E82
:1027C00067206D65736820696E20736C6F742000DC
:1027D0003F557365203020746F20003F496E76614D
:1027E0006C69642073746F7261676520736C6F74B9
:1027F0002E0A003F557365203020746F20003F5330
:10280000746F7261676520736C6F7420232072652A
:102810007175697265642E0A003F454550524F4DEF
:102820002073746F72616765206E6F7420617661CA
:10283000696C61626C652E0A008B27862781277C74
:10284000275D0A0062656420706C616E65206E6FA2
:10285000726D616C203D205B002020443D002020F3
:10286000423D004C534620526573756C7473204191
:102870003D00436F756C64206E6F7420636F6D70E4
:102880006C657465204C534621006F6B0067656E64
:1028900065726963206D6F766520646F6E6520696F
:1028A0006E2075626C2E6C696E655F746F5F646517
:1028B0007374696E6174696F6E282900686F72693C
:1028C0007A6F6E74616C206D6F766520646F6E65D3
:1028D00020696E2075626C2E6C696E655F746F5F27
:1028E00064657374696E6174696F6E28290076651A
:1028F00072746963616C206D6F766520646F6E65BC
:1029000020696E2075626C2E6C696E655F746F5FF6
:1029100064657374696E6174696F6E282900464935
:102920004E414C5F4D4F564520696E2075626C2EAE
:102930006C696E655F746F5F64657374696E6174F2
:10294000696F6E2829005374617274206F66207558
:10295000626C2E6C696E655F746F5F646573746919
:102960006E6174696F6E2829002C2065653D002C0E
:10297000207A653D002C2079653D002075626C2E23
:102980006C696E655F746F5F64657374696E6174A2
:10299000696F6E2878653D0020746F6F206C6F6ED4
:1029A0006720657874727573696F6E2070726576D2
:1029B000656E7465640A0020636F6C6420657874CA
:1029C000727573696F6E2070726576656E7465647A
:1029D0000A00627573793A207061757365642066C8
:1029E0006F7220696E7075740A00627573793A208F
:1029F00070617573656420666F7220757365720A05
:102A000000627573793A2070726F63657373696ED3
:102A1000670A004B494C4C45442E20004B494C4C16
:102A200020636175736564206279204B494C4C20AA
:102A3000627574746F6E2F70696E0A004B494C4C4E
:102A400045442E20004B494C4C20636175736564EE
:102A500020627920746F6F206D75636820696E61E4
:102A600063746976652074696D65202D20637572C5
:102A700072656E7420636F6D6D616E643A200050F4
:102A800072696E7465722068616C7465642E206B67
:102A9000696C6C28292063616C6C6564210A0000F4
:102AA0000000000000444300008243000048420050
:102AB0000048420000C040000000005761726E698B
:102AC0006E673A20486F6D696E672042756D7020A1
:102AD00044697669736F72203C20310A0002020457
:102AE0000000A0400000A04000000040000044435F
:102AF0000000444300008243FF0101206D657368BC
:102B000020736C6F747320617661696C61626C65AF
:102B10002E0A003F496E76616C696420736C6F7495
:102B20002E0A004D65736820736176656420696EB6
:102B300020736C6F74200020736C6F743D00206DE7
:102B400065736865735F656E643D004532454E444C
:102B50003D004D657368206C6F616465642066722A
:102B60006F6D20736C6F74200048617264636F64D2
:102B700065642044656661756C742053657474697E
:102B80006E6773204C6F616465640A00B80B0000C7
:102B9000B80B000064000000F40100000000964340
:102BA000000096430000A0400000C8413914A04234
:102BB0003914A0425C0F484400801143526573658C
:102BC0006E643A200000F0CB11241FBECFEFD1E29B
:102BD000DEBFCDBF00E00CBF13E0A0E0B2E0E6E452
:102BE000F9EB01E00BBF02C007900D92AE32B107C6
:102BF000D9F72EE0AEE2B3E001C01D92AC37B207C8
:102C0000E1F715E1C4EED5E100E006C02197010926
:102C1000802FFE010E9473DCC33ED10780E00807CD
:102C2000A9F70E9471CC0C94A1DC0C9400002F92A7
:102C30003F924F925F926F927F928F929F92AF924C
:102C4000BF92CF92DF92EF92FF920F931F93CF9399
:102C5000DF93CDB7DEB7AE970FB6F894DEBF0FBEE9
:102C6000CDBF0091120620E6029F800111240D5A6B
:102C70001C4F80917E0C80FF1AC0E7EAFEE0849131
:102C80007F013FEFE31AF30A811102C0780104C00B
:102C90000E941E2FF701F3CFD7018D917D0188236C
:102CA00019F00E941E2FF8CF8AE00E941E2F81E0AB
:102CB00090E09093940D8093930D1092D404109211
:102CC000D3048FE38093D7041092D6041092D504D6
:102CD000109248031092490310924A0310924B033A
:102CE000F80180810F5F1F4F8032D1F38E34B1F431
:102CF000818190ED980F9A3020F08D3211F08B3257
:102D000069F43296DF0131962C9120532A30D0F3AA
:102D1000CD01FC01019620812032D9F3F0939B0D67
:102D2000E0939A0D7F01BFEFEB1AFB0A10816AE274
:102D300070E0C7010E9481DC009731F0FC013197FF
:102D400080818032E1F311821D3429F0143519F0AD
:102D5000173409F0D3C0F70180812FEFE21AF20A8D
:102D60008032C9F380538A3008F0C8C01093D7046A
:102D70002091D5043091D6044AE03196429FC0019B
:102D8000439F900D1124DF0111972C91022E000C0E
:102D9000330B20533109280F391F808180538A302B
:102DA00060F33093D6042093D504DF0131968C91E3
:102DB0008032D9F3BD011D3451F000919A0DE0919C
:102DC000D304F091D404AA24A394B12C57C02E317B
:102DD000310591F03CF42731310571F02C3131058A
:102DE00061F70AC02537310544F32737310524F050
:102DF000203A43E0340709F7B093D404A093D304F6
:102E00007DC0413209F445C041544A3108F061C0E7
:102E1000782F692FDC015D91CD015032C9F3872FE6
:102E2000962F60ED650F6A3008F047C0BC01E42EB4
:102E3000F12C670153E0D594C7945A95E1F7D60178
:102E4000A85BBC4F6D014770D50102C0AA0FBB1F24
:102E50004A95E2F7AD01D6015C91452B4C93611583
:102E60007105A9F1601BA701425D5C4FDA016C930B
:102E7000DC014C9141544A3180F5BC01CB010196F3
:102E8000DB014C914111BDCFF093D404E093D30406
:102E900035C01D3409F0B8CF2032310509F0B4CF68
:102EA0009093D4048093D30463E270E00E9481DCA9
:102EB000009721F1FC01108221C063ED650F6230A3
:102EC00008F4B4CF5B3211F00C94BA28AFCF60E0B5
:102ED000CACF309769F6FB01CBCFBC01AB016F5F66
:102EE0007F4FDA019C9190539A30C0F3CA014F5F33
:102EF0005F4FDC016C916032C9F3BFCF8091D70482
:102F00008D3409F461C2843511F40C94602887343F
:102F100011F00C949C288091D5049091D6048D31A9
:102F2000910509F473C0CCF48430910571F144F437
:102F3000029710F00C94B3280E94CE7C0C94B32816
:102F40008A31910509F45EC04C9711F00C94B328B6
:102F500080E00E94EE7D0C94B3288A35910509F437
:102F6000E0C04CF48E31910509F454C08A9709F4FD
:102F700042C10C94B3288B35910509F4D6C08C3529
:102F8000910509F4D7C00C94B32880E50E94ED3177
:102F9000882329F00E9415416B017C0103C0C12CDC
:102FA000D12C760183E50E94ED31882361F00E94E7
:102FB000873120E030E04AE754E40E94B2D40E9416
:102FC0009ED96B017C010E9420500E94E5418091B6
:102FD0009C0D90919D0DA0919E0DB0919F0DC80EDE
:102FE000D91EEA1EFB1E0E94B1A0DC01CB018C1988
:102FF0009D09AE09BF09B7FD02C00C94B3280E9419
:10300000A4C5F1CF0E94F9310C94B3280E94F56554
:103010000C94B328C0903C06D0903D06E0903E064C
:10302000F0903F0688E50E94ED31811108C020E054
:1030300030E0A901C701B6010E94B7D802C00E94C2
:1030400087316E8B7F8B888F998FC0904006D09090
:103050004106E0904206F090430689E50E94ED317A
:10306000811109C020E030E040EF51E4C701B60112
:103070000E94B7D802C00E9487316B017C0169832E
:103080007A838B839C8340901F0D5090200D60901D
:10309000210D7090220D20911B0D30911C0D40913F
:1030A0001D0D50911E0D6E897F89888D998D0E940E
:1030B000B6D84B015C012FE632E143E85AEB0E949F
:1030C00056DA87FF02C00C94B32822E430E044E4CF
:1030D00053E4C501B4010E944DD4181614F40C94A5
:1030E000B328A3019201C701B6010E94B6D86B01B3
:1030F0007C0124EF3DEF4FEE51E40E9456DA87FF4A
:1031000002C00C94B32822E430E044E453E4C70145
:10311000B6010E944DD4181614F40C94B3280C94E4
:10312000C228109252030C94B32881E0809352037A
:103130000C94B32885E40E94ED31B82E811102C0B1
:103140000E94205026E5822E22E0922E3CE3C32EE0
:1031500036E0D32E44EAE42E4DE0F42E00E010E0F9
:10316000A12CF40181914F010E94ED31882361F17E
:10317000D6012D913D914D915C912BA73CA74DA778
:103180005EA70E948731F6016083718382839383F7
:103190002BA53CA54DA55EA503301105A9F00E9405
:1031A000B6D89B01AC01D7016D917D918D919C9119
:1031B0000E94B7D8F7016083718382839383C8012B
:1031C0000E94B340AA24A3940F5F1F4FF4E0CF0ED8
:1031D000D11C24E0E20EF11C0430110511F6AA20E6
:1031E00019F00E940B4103C0B1100E94C7490E9410
:1031F0000E770C94B32880911002882311F40C945C
:10320000B32889E40E94ED31E82E882321F00E9442
:103210005731F62E01C0F12C8AE40E94ED31182FAF
:10322000882331F00E945731062FE11004C00BC0F3
:1032300000E0EE20B9F034E03F1510F00C94FC2CC7
:10324000E5E6F2E003C00530D8F70CC084918F01A9
:103250000F5F1F4F882311F40C94B3280E941E2F78
:10326000F801F4CF0E949F40EE20A1F1EF2DF0E095
:1032700044E04F1558F0EE0FFF1FEE0FFF1FEA5509
:10328000FC4D659175918591949112C0BF01FF0F1E
:10329000880B990B0E9453D420E030E042E452E4C2
:1032A0000E94B2D420E030E040E85FE30E94B7D84B
:1032B00020911B0D30911C0D40911D0D50911E0D44
:1032C0000E94B7D8609350067093510680935206BF
:1032D00090935306112399F1E02FF0E0053058F454
:1032E000EE0FFF1FEE0FFF1FE35CFB4D6591759125
:1032F0008591949112C0BF01FF0F880B990B0E941A
:1033000053D420E030E042E452E40E94B2D420E002
:1033100030E040E85FE30E94B7D820911F0D309164
:10332000200D4091210D5091220D0E94B7D860933D
:10333000540670935506809356069093570680E581
:103340000E94BE318823E1F00E9478318823C1F0C9
:103350001123B1F020E030E040EF51E460915406D9
:103360007091550680915606909157060E94B6D8E6
:1033700060935406709355068093560690935706B3
:1033800086E40E94ED318823D9F00E9487316B01D9
:103390007C0120E030E0A9010E9456DA181684F47E
:1033A00020E030E040E752E4C701B6010E9431D985
:1033B00060934502709346028093470290934802BF
:1033C0000E94C0B90C94B3288091D5049091D60482
:1033D0008937910509F498C70CF086C084359105AA
:1033E00009F463C50CF03FC08133910509F440C274
:1033F000BCF48131910509F4CEC12CF4029708F494
:1034000045C10C94B3288F31910509F4CAC18A32A1
:10341000910509F4EDC1429711F00C94B32845C50C
:103420008E34910509F469C27CF48C34910509F459
:1034300046C20CF05EC28B34910511F00C94B32897
:103440000E94284A0C94B3288235910509F424C5BA
:103450000CF026C58135910511F00C94B3280E941B
:10346000CD770C94B3288E36910509F487C3FCF40C
:103470008936910509F481C474F48C35910509F4F9
:1034800062C58836910509F44AC38535910511F066
:103490000C94B3283DC58B36910509F4EBC40CF4AC
:1034A000E5C48D36910509F4B0C40C94B328833774
:1034B000910509F4D7C564F48137910509F413C463
:1034C0000CF0CAC58F36910509F46BC30C94B32870
:1034D0008737910509F48EC60CF010C78637910521
:1034E00009F451C60C94B3288E3251E0950711F4BB
:1034F0000C94C8240CF062C08D3C910509F4F2C70D
:1035000044F5883C910509F404C774F48B3991059E
:1035100009F450C48E3B910509F493C48C3891058D
:1035200011F00C94B3280BC48B3C910509F452C7DD
:103530000CF06EC7893C910511F00C94B3283FE85C
:10354000E32E3CE0F32E06E512E044E0D42ED00E4C
:1035500028C78D3D910511F40C94BB23FCF4833DE9
:10356000910511F40C9416238C3D910511F40C94E3
:10357000AE238E3C910511F00C94B32816E5A12ED4
:1035800012E0B12E0CE3C02E06E0D02E85EEE82E20
:1035900085E0F82E00E010E00C94DD228C32B1E0E2
:1035A0009B0711F40C94FE2314F00C942724823E04
:1035B000910511F40C94D4230C94B328853AF1E0CE
:1035C0009F0711F40C9460264CF5803931E0930785
:1035D00011F40C941F2594F4803351E0950711F4F5
:1035E0000C94C52414F40C941C258336914011F0DE
:1035F0000C94B328E8EAFDE00C943B288239E1E022
:103600009E0711F40C94262514F40C942225843A78
:10361000914011F40C942A250C94B328863F31E094
:10362000930711F40C94F727F4F4843F51E09507C5
:1036300011F40C94F12714F00C94F4278C3A914077
:1036400011F00C94B32885EEC82E85E0D82E9CE3AB
:10365000E92E96E0F92E20EB222E2DE0322E00E00E
:1036600010E00C9421278335E3E09E0711F40C94BD
:103670000828873EF3E09F0711F40C945028873FF9
:10368000914011F00C94B3280C94FA27E090D304E5
:10369000F090D40480E50E94ED31882359F00E9417
:1036A00015414B015C0111E0672B682B692B31F44C
:1036B00010E004C010E0812C912C540183E50E949D
:1036C000ED31882399F00E94873120E030E04AE70D
:1036D00054E40E94B2D40E949ED94B015C011111A6
:1036E0000CC0672B682B692B41F43CC0111105C03D
:1036F000E114F10411F00C94182983E090E0909308
:10370000940D8093930D81E080934C030E94205090
:103710000E94E54181149104A104B104A9F18091B2
:103720009C0D90919D0DA0919E0DB0919F0D7501E6
:103730006401C80ED91EEA1EFB1E0E94B1A0DC0166
:10374000CB018C199D09AE09BF09B7FD04C01092C9
:103750004C030C94B32880914C038823C1F30E943E
:10376000A4C5EBCFE114F10411F00C94182983E007
:1037700090E09093940D8093930D81E080934C039F
:103780000E9420500E94E54180914C038823F9F269
:103790000E94A4C5F9CF5F988A98479812980C9414
:1037A000B32885EA96E00E94B24F6E8B7F8B888F9C
:1037B000998FBE016F5F7F4FCE0146960E942541D3
:1037C000E7EAFEE084918F010F5F1F4F882321F00D
:1037D0000E941E2FF801F6CFBE016F5F7F4F84E875
:1037E00092E00E94B9878AE00E941E2F0C94B328B1
:1037F00083E50E94ED31882311F40C94B3280E94D4
:103800006731D82E80E50E94ED31882339F00E947F
:1038100057317B0177FF05C00C94B3280DE0E02EF3
:10382000F12C9E2DE6EEF5E088E28E0F24919217A2
:1038300029F031968E13FACF0C943429E8EAFDE092
:1038400084918F010F5F1F4F882321F00E941E2F4C
:10385000F801F6CFE1E9F2E084918F010F5F1F4F8D
:10386000882311F40C94B3280E941E2FF801F4CF82
:1038700090912B0D81E0892780932B0DE9EAF2E0EE
:1038800084918F010F5F1F4F882321F00E941E2F0C
:10389000F801F6CF80912B0D811103C0E4EAF2E02C
:1038A00002C0E0EAF2E084918F010F5F1F4F88238E
:1038B00011F40C94B3280E941E2FF801F4CF8091CC
:1038C000A5069091A606019711F00C94B32882E00A
:1038D00090E09093A6068093A5060E94B1A0609305
:1038E000AF067093B0068093B1069093B2060C9425
:1038F000B3280E947E470C94B32883E50E94ED31E3
:10390000882359F00E9457316E34710531F485EAED
:1039100096E00E94EF870C94B3281E8A1F8A188EA7
:10392000198EE0E2F3E084918F010F5F1F4F88232F
:1039300021F00E941E2FF801F6CFE7E1F3E0849119
:103940008F010F5F1F4F882321F00E941E2FF80167
:10395000F6CF6091B3067091B40680E090E04AE043
:103960000E942842EAE0F3E084918F010F5F1F4F2D
:10397000882321F00E941E2FF801F6CF6091B50632
:103980007091B60680E090E04AE00E942842EFEF96
:10399000F2E084918F010F5F1F4F882321F00E9476
:1039A0001E2FF801F6CF6091B3067091B406809196
:1039B000B5069091B606681B790B8091A50690918B
:1039C000A606019721E030E0029710F020E030E0F9
:1039D000621B730B80E090E04AE00E9428428AE07C
:1039E0000E941E2FE7EFF2E084918F010F5F1F4FBF
:1039F000882321F00E941E2FF801F6CF8091B70690
:103A00009091B806A091B906B091BA068E8B9F8BA3
:103A1000A88FB98FBE016F5F7F4FCE0146960E947F
:103A20002541EAEEF2E084918F010F5F1F4F811173
:103A300006C09E012F5F3F4F7901890104C00E949B
:103A40001E2FF801F0CFD8018D918D01882319F038
:103A50000E941E2FF8CF8091BB069091BC06A091CA
:103A6000BD06B091BE068E8B9F8BA88FB98FBE010D
:103A70006F5F7F4FCE0146960E942541EAEDF2E04E
:103A800084918F010F5F1F4F882321F00E941E2F0A
:103A9000F801F6CFF70181917F01882319F00E9488
:103AA0001E2FF8CF8AE00E941E2FE2EDF2E08491F3
:103AB0008F010F5F1F4F882321F00E941E2FF801F6
:103AC000F6CFE2ECF2E084918F010F5F1F4F882365
:103AD00021F00E941E2FF801F6CF20E030E04AE7E7
:103AE00054E46091BF067091C0068091C106909128
:103AF000C2060E9431D942E00E94B644E0ECF2E0F6
:103B000084918F010F5F1F4F882321F00E941E2F89
:103B1000F801F6CF8AE00E941E2F0C94B32888E6A5
:103B200090E00E94904281110C94B32880917E0C09
:103B300083FF02C00C94B32883E50E94ED318823F3
:103B4000C9F00E9487310E9499D97093490D609302
:103B5000480D80E00E94E2AF0E94873120E030E013
:103B60004AEA52E40E944DD4181614F00E947E478F
:103B70000E9487310E9404880C94B3288EE40E942E
:103B8000ED31882311F40C94B3280E9457316093CF
:103B9000720E7093730E8093740E9093750E0C9446
:103BA000B32883E50E94ED31882319F00E94673124
:103BB00001C080E080937E0CE7EAFEE084918F01F3
:103BC0000F5F1F4F882321F00E941E2FF801F6CFB0
:103BD000E6E3F3E084918F010F5F1F4F882321F00C
:103BE0000E941E2FF801F6CF80917E0C8823A1F150
:103BF00018E2C12E13E0D12EE12CF12C20E08091AF
:103C00007E0C90E00E2C02C0959587950A94E2F701
:103C100080FF17C0BB24B394B20E222319F08CE2AC
:103C20000E941E2FF60125913491F901849189019A
:103C30000F5F1F4F882321F00E941E2F9801F5CFA0
:103C40002B2DFFEFEF1AFF0A32E0C30ED11C45E027
:103C5000E416F104A1F642C0E2E3F3E084918F019F
:103C60000F5F1F4F8823D1F10E941E2FF801F6CF5E
:103C70008AE50E94BE31882311F40C942D280E94FD
:103C800087316B017C0120E030E040EA51EC0E947A
:103C900056DA87FF02C00C94202820E030E040EA8A
:103CA00051E4C701B6010E944DD4181614F40C94C7
:103CB0002028C092350CD092360CE092370CF0924E
:103CC000380CC0924E02D0924F02E0925002F09215
:103CD000510242E0C701B6010E94B6448AE00E9448
:103CE0001E2F0C94B32883E50E94ED31882369F0E0
:103CF0000E946731809349028D3310F40C94B328ED
:103D00008CE3809349020C94B328E7EAFEE08491A7
:103D10008F010F5F1F4F882321F00E941E2FF80193
:103D2000F6CF4091490250E060E070E08DE393E00F
:103D30000E94FF568AE00E941E2F0C94B3288091A7
:103D40007E0C83FF02C00C94B32883E50E94ED3102
:103D5000882311F40C94B3280E9487310E9499D9CA
:103D60006F36710514F06EE670E07093470D609346
:103D7000460D0E9497AF0C94B32889E690E00E940C
:103D80009042811111C0E4E4F3E084918F010F5F50
:103D90001F4F882321F00E941E2FF801F6CF0E94AA
:103DA000FE778AE00E941E2F1092940D1092930DC0
:103DB0000C942A2D83E50E94ED31882311F40C9494
:103DC000B3280E9467318093990D8D3318F08CE3EE
:103DD0008093990D0E94B1A06B017C012091990DF7
:103DE00030E0A8EEB3E00E94A7D8DC01CB018C0D37
:103DF0009D1DAE1DBF1D8093950D9093960DA093B4
:103E0000970DB093980D0C94B3288DE690E00E9426
:103E1000904281110C94B32880917E0C83FF02C0E4
:103E20000C94B32883E50E94ED318AA381110C9490
:103E30000B2A82E50E94ED3181110C940B2A0C941F
:103E4000B32880917E0C83FF02C00C94B32883E5D5
:103E50000E94ED318AA381110C943A2B82E50E94D5
:103E6000ED3181110C943A2B0C94B3280E94DD772C
:103E70000C94B32880E50E94ED31811106C01092A8
:103E8000790C1092780C0C94B3280E945731672B50
:103E900011F00C94B328F3CF109251030C94B32873
:103EA00081E0809351030C94B32883E50E94ED31A7
:103EB0008823A1F00E94873120E030E04AE754E4F3
:103EC0000E94B2D40E949ED960934A0270934B0222
:103ED00080934C0290934D020C94B32888E50E9485
:103EE000BE3181110C946C2C89E50E94BE31811188
:103EF0000C946C2C8AE50E94BE3181110C946C2CC0
:103F000085E40E94BE3181110C946C2C0C948A2C97
:103F100083E50E94BE31882311F40C94B3280E94DB
:103F2000873120E030E04AE754E40E94B2D40E9496
:103F30009ED96093A00D7093A10D8093A20D9093D4
:103F4000A30D0C94B32866E5C62E62E0D62E74E26B
:103F5000E72E76E0F72E10E0D6018D916D010E94DC
:103F6000BE31882309F46DC0133009F063C00E948C
:103F700087314B015C0120E030E040EA51E40E94CF
:103F80004DD487FF4EC0A501940160913006709119
:103F9000310680913206909133060E9431D92B016F
:103FA0003C019B01AC0160914C0C70914D0C8091D7
:103FB0004E0C90914F0C0E94B2D460934C0C7093B5
:103FC0004D0C80934E0C90934F0CA3019201609185
:103FD000680C7091690C80916A0C90916B0C0E9436
:103FE000B2D46093680C7093690C80936A0C9093C0
:103FF0006B0C60918B0C70918C0C80918D0C90915E
:104000008E0C0E9451D4A30192010E94B2D40E944E
:104010009ED960938B0C70938C0C80938D0C909335
:104020008E0C8092300690923106A0923206B092A9
:10403000330607C00E948731F70160837183828352
:1040400093831F5FF4E0EF0EF11C143009F084CF6E
:104050000E9461890C94B3280E9420500E940E7720
:104060000C94B328EAE2F4E084918F010F5F1F4FB4
:10407000882321F00E941E2FF801F6CFECE1F4E036
:1040800084918F010F5F1F4F882321F00E941E2F04
:10409000F801F6CFE5E0F4E084918F010F5F1F4F48
:1040A000882321F00E941E2FF801F6CFE5EFF3E000
:1040B00084918F010F5F1F4F882321F00E941E2FD4
:1040C000F801F6CFE4EEF3E084918F010F5F1F4F0C
:1040D000882321F00E941E2FF801F6CFE3EDF3E0D4
:1040E00084918F010F5F1F4F882321F00E941E2FA4
:1040F000F801F6CFE4ECF3E084918F010F5F1F4FDE
:10410000882321F00E941E2FF801F6CFEFEAF3E09A
:1041100084918F010F5F1F4F882321F00E941E2F73
:10412000F801F6CFE9E9F3E084918F010F5F1F4FAB
:10413000882321F00E941E2FF801F6CFE4E8F3E077
:1041400084918F010F5F1F4F882321F00E941E2F43
:10415000F801F6CFE7E6F3E084918F010F5F1F4F80
:10416000882321F00E941E2FF801F6CFEFE4F3E040
:1041700084918F010F5F1F4F882309F4F4C70E94B9
:104180001E2FF801F5CF85E40E94BE31882381F00F
:104190000E947831882361F0E7EAFEE084918F0184
:1041A0000F5F1F4F882321F00E941E2FF801F6CFCA
:1041B00081E40E94BE31882381F00E9478318823F7
:1041C00061F0EEEEF4E084918F010F5F1F4F8823C2
:1041D00021F00E941E2FF801F6CF0091D304109118
:1041E000D404D8018D918D01882309F477CD0E94E4
:1041F0001E2FF7CFE2E1F5E084918F010F5F1F4F93
:10420000882321F00E941E2FF801F6CFEAE0F5E0A6
:1042100084918F010F5F1F4F882321F00E941E2F72
:10422000F801F6CF659903C004E912E002C009E97C
:1042300012E0F80181918F01882319F00E941E2F4E
:10424000F8CF8AE00E941E2FE2E0F5E084918F0112
:104250000F5F1F4F882321F00E941E2FF801F6CF19
:104260008091030181FD03C004E912E002C009E965
:1042700012E0D8018D918D01882319F00E941E2F24
:10428000F8CF8AE00E941E2FEAEFF4E084918F01BC
:104290000F5F1F4F882321F00E941E2FF801F6CFD9
:1042A0004A9903C004E912E002C009E912E0F801EA
:1042B00081918F01882319F00E941E2FF8CF8AE088
:1042C0000E941E2FE2EFF4E084918F010F5F1F4FD9
:1042D000882321F00E941E2FF801F6CF4B9903C0CE
:1042E00004E912E002C009E912E0D8018D918D01C4
:1042F000882309F4F3CC0E941E2FF7CF81E080932E
:10430000E0058093EF0D2FC71092E0051092EF0D9E
:104310002AC788EC90E00E949042811124C784E46F
:104320000E94BE318823D1F10E94873111E020E044
:1043300030E0A9010E944DD4811101C010E010931A
:10434000AC0C112359F100914D0310E00E9487310C
:10435000000F111F000F111FF801E855F34F608384
:1043600071838283938320E030E0A9016091A80CDF
:104370007091A90C8091AA0C9091AB0C0E944DD425
:1043800081110CC080E090E0A0EEBFE38093A80C08
:104390009093A90CA093AA0CB093AB0C0E9452C9A5
:1043A000E2C6F80181918F010E94BE31882351F04D
:1043B0000E9487310E949ED9D7016D937D938D9382
:1043C0009C931397B4E0EB0EF11CD012EACF0E943D
:1043D0003488C9C69CE5E92E9CE0F92E06E512E07A
:1043E00024E0D22ED00EF80181918F010E94BE31BF
:1043F000882341F00E948731D7016D937D938D937F
:104400009C931397B4E0EB0EF11CD012ECCFABC62B
:1044100083E50E94BE318823D9F00E948731AB0129
:10442000BC014093540C5093550C6093560C709300
:10443000570C4093500C5093510C6093520C709356
:10444000530C86E895E00E9483878AE00E941E2F25
:1044500080E50E94BE31882399F00E948731AB012C
:10446000BC014093540C5093550C6093560C7093C0
:10447000570C89E695E00E9483878AE00E941E2FF0
:1044800082E50E94BE31882399F00E948731AB01FA
:10449000BC014093580C5093590C60935A0C709384
:1044A0005B0C8AE495E00E9483878AE00E941E2FBD
:1044B00084E50E94BE31882309F455C60E948731E5
:1044C000AB01BC014093500C5093510C6093520CC3
:1044D0007093530C8CE295E00E9483878AE00E94DF
:1044E0001E2F41C683E50E94BE31882351F00E94F1
:1044F00087316093740C7093750C8093760C909355
:10450000770C84E50E94BE31882351F00E948731E8
:104510006093700C7093710C8093720C9093730C79
:1045200082E40E94BE31882351F00E9415416093BD
:104530006C0C70936D0C80936E0C90936F0C88E5EF
:104540000E94BE31882351F00E9487316093400C55
:104550007093410C8093420C9093430C89E50E9428
:10456000BE31882351F00E9487316093440C7093D0
:10457000450C8093460C9093470C8AE50E94BE310F
:10458000882351F00E9487316093480C7093490C46
:1045900080934A0C90934B0C85E40E94BE31882393
:1045A00009F4E1C50E94873160934C0C70934D0C67
:1045B00080934E0C90934F0CD6C5F50181915F010D
:1045C0000E94BE31882311F10E9487312B013C01EA
:1045D000D7012D913D914D915C910E94B6D89B01E0
:1045E000AC01F60160817181828193810E94B7D80C
:1045F000D6016D937D938D939C931397F701408221
:10460000518262827382C8010E94B3400F5F1F4FC4
:10461000F4E0CF0ED11C24E0E20EF11C03301105B2
:1046200061F60E940B410E940E779DC5E7EAFEE00D
:1046300084918F010F5F1F4F882321F00E941E2F4E
:10464000F801F6CF83E50E94BE31882321F00E9455
:10465000783180934202E6EDF5E084918F010F5F9F
:104660001F4F882321F00E941E2FF801F6CF809162
:104670004202811103C0E2EDF5E002C0EEECF5E08C
:1046800084918F010F5F1F4F882321F00E941E2FFE
:10469000F801F6CFE6ECF5E084918F010F5F1F4F34
:1046A000882321F00E941E2FF801F6CF4091860D3D
:1046B0005091870D6091880D7091890D84EC95E083
:1046C0000E94838740918A0D50918B0D60918C0DD3
:1046D00070918D0D81EC95E00E94838740918E0D45
:1046E00050918F0D6091900D7091910D8EEB95E032
:1046F0000E948387E6EBF5E084918F010F5F1F4FE7
:10470000882321F00E941E2FF801F6CF4091360237
:1047100050913702609138027091390284EB95E034
:104720000E94838740913A0250913B0260913C0283
:1047300070913D0281EB95E00E94838740913E029B
:1047400050913F0260914002709141028EEA95E0E3
:104750000E9483878AE00E941E2F05C583E50E9480
:10476000ED31882309F4FFC40E945731709344024D
:1047700060934302F8C48DED90E00E949042811155
:10478000F2C483E50E94ED31882309F4ECC4009162
:104790004D0310E00E945731000F111FF801E75E32
:1047A000FD4F71836083DFC480E50E94BE318823A2
:1047B00009F4D9C40E945731F62EC62ED72E83E5B0
:1047C0000E94ED31882321F00E9457318B0102C0F5
:1047D0000FEF1FEFC8010196039708F0C4C4D7FC80
:1047E000C2C4E6EEF5E088E28E0F9491F91609F462
:1047F000BAC431968E13F9CF0C94032D83E50E9431
:10480000ED31882319F00E94573102C064E071E055
:104810007F8B6E8B80E50E94ED31882339F00E94FA
:104820005731693833E1730730F402C068EE73E042
:104830007A83698304C088E893E19A838983BE01FF
:104840006A5E7F4FCE0101960E94844A8CC485E443
:104850000E94ED31811110C080E50E94BE31882395
:1048600091F00E9487316093A80B7093A90B8093FD
:10487000AA0B9093AB0B07C00E946731882361F3AA
:10488000E8EAFDE071C089E40E94BE31882381F02E
:104890000E9487312CEA35EC47E25EE30E94B2D4F5
:1048A0006093A40B7093A50B8093A60B9093A70B1A
:1048B00084E40E94BE31882381F00E9487312CEA73
:1048C00035EC47E25EE30E9431D96093AC0B709304
:1048D000AD0B8093AE0B9093AF0BE7EAFEE08491B3
:1048E0008F010F5F1F4F882321F00E941E2FF801B8
:1048F000F6CF4091A80B5091A90B6091AA0B709133
:10490000AB0B86E196E00E9483872CEA35EC47E208
:104910005EE36091A40B7091A50B8091A60B909122
:10492000A70B0E9431D9AB01BC0182E196E00E9445
:104930001C572CEA35EC47E25EE36091AC0B7091BA
:10494000AD0B8091AE0B9091AF0B0E94B2D4AB0136
:10495000BC018EE096E00E941C578AE00E941E2F48
:1049600002C40E941E2FF80184918F010F5F1F4F18
:104970008111F7CF0FEA12E0D8018D918D018823C4
:1049800009F4ACC90E941E2FF7CF0E948F76EBC3AB
:1049900083E50E94BE31182F882371F00E94873171
:1049A0000E9499D9709318026093170221E0672B37
:1049B00009F020E020933F0C80E50E94BE3188235F
:1049C00059F02091170230911802232B11F00E9408
:1049D000783180933F0CC7C31111C5C3E7EAFEE0ED
:1049E00084918F010F5F1F4F882321F00E941E2F9B
:1049F000F801F6CF80913F0C811103C063EA72E0A9
:104A000002C066E972E08FE296E00E94B987609189
:104A10001702709118028EE196E00E94A087EAE1E9
:104A2000F6E084918F010F5F1F4F882309F49BC329
:104A30000E941E2FF801F5CF0E948A7894C30E942D
:104A4000205091C381E00E9413408DC380E00E94FA
:104A5000134089C38CE40E94BE31882309F447C007
:104A60008091720D9091730D892B21F00E94573126
:104A7000162F02C0109116020E9411CB7C01892BC7
:104A800069F4E0EDF6E084918F010F5F1F4F8823FA
:104A900009F469C30E941E2FF801F5CF17FF03C068
:104AA000E8EBF6E00FC0812F012E000C990B8E155C
:104AB0009F05B4F760E070E0812F0E9425CB109332
:104AC000160215C084918F010F5F1F4F882321F0BC
:104AD0000E941E2FF801F6CFB701615071098DEACF
:104AE00096E00E94A0878AE00E941E2F3CC38CE4BF
:104AF0000E94BE31811106C086E50E94BE31882326
:104B000009F44AC080E090E00E94E4A9C090AF0C94
:104B1000D090B00CE090B10CF090B20C8090B30C3F
:104B20009090B40CA090B50CB090B60CA501940177
:104B3000C701B6010E944DD481110FC02091B70C5E
:104B40003091B80C4091B90C5091BA0CC501B40128
:104B50000E944DD4882309F4E2C610E0A701960113
:104B6000C701B6010E946ADB811101C011E0612F0B
:104B700070E08BE996E00E94A0878AE00E941E2FD9
:104B800060911602062E000C770B81E896E00E94D9
:104B9000A0878AE00E941E2F86E50E94BE3183E531
:104BA0000E94BE31182F882319F00E947831182FE7
:104BB00083E50E94BE31882319F0812F0E94E87D91
:104BC0008AE50E94BE31882321F00E9487310E942D
:104BD0004E7FF0901102111103C0E7EAFEE01AC007
:104BE000F110FBCFE8EAFDE084918F010F5F1F4FCA
:104BF000882321F00E941E2FF801F6CFE2E6F6E0AE
:104C000084918F010F5F1F4F882339F30E941E2F5D
:104C1000F801F6CF84918F010F5F1F4F882321F099
:104C20000E941E2FF801F6CFF11003C06BEA72E06C
:104C300002C067EA72E084E596E00E94B9878AE0E4
:104C40000E941E2FE7EAFEE084918F010F5F1F4F45
:104C5000882321F00E941E2FF801F6CFE7E4F6E04A
:104C600084918F010F5F1F4F882321F00E941E2F18
:104C7000F801F6CFC090270DD090280DE090290DB7
:104C8000F0902A0D20E030E0A901C701B6010E9492
:104C900056DA181664F002E416E0F80184918823CD
:104CA00009F461C20F5F1F4F0E941E2FF6CF42E032
:104CB000C701B6010E94B6448AE00E941E2F53C26B
:104CC00089E40E94ED31882321F00E945731A62EFD
:104CD00002C0AA24AA948AE40E94ED31882321F01C
:104CE0000E945731F62E02C0FF24FA9483E40E94FA
:104CF000BE31B82E8AE50E94BE31C82E811105C092
:104D000081E50E94BE31D82E01C0D12CBB20A1F07C
:104D1000E12C00E010E020E040E456E06CE376E0B7
:104D200081E090E00E9466B529833A834B835C83DF
:104D30006D837E83032F02C00F2D2A2D4B2D50E053
:104D4000A7FC05C0F094FF1CFF24FF1C01C0F12C40
:104D50004F0D511D4130510519F0E8EAFDE005C045
:104D6000C1101AC0D11018C0F8CF84918F010F5F05
:104D70001F4F882321F00E941E2FF801F6CFEFE08D
:104D8000F7E084918F010F5F1F4F882309F4EBC177
:104D90000E941E2FF801F5CF253018F0E8EAFDE05B
:104DA00006C00530D8F716C00E941E2FF801849166
:104DB0008F010F5F1F4F8111F7CFE0EFF6E0849175
:104DC0008F010F5F1F4F882309F4CDC10E941E2F52
:104DD000F801F5CFE22E220FFF08002E000C110B78
:104DE0000E948731DD2099F025E02E9DF0012F9D56
:104DF000F00D1124E00FF11FEE0FFF1FEE0FFF1F4C
:104E0000E155F34F208131814281538103C020E07D
:104E100030E0A901A5E0AE9DF001AF9DF00D112499
:104E20000E0F1F1F000F111F000F111F0155134FF1
:104E30000E94B7D8D8016D937D938D939C9313975F
:104E400092C1F101E05BFD40FB8FEA8FD1018D91B2
:104E50001D01882309F498C0F701408051806280C9
:104E60007380F801EA5CFD4F2081318142815381DA
:104E7000F801EA57F24F60817181828193810E942B
:104E8000B7D820E030E040E05FE30E94B2D49B015D
:104E9000AC01C301B2010E9456DA181644F4F801BD
:104EA000E156F54D85909590A590B49003C0812C66
:104EB000912C5401F801E55EF24F2081318142814D
:104EC0005381C301B2010E94B6D89B01AC01C50158
:104ED000B4010E94B6D84B015C0120E030E040EA0A
:104EE00051EC0E9456DA87FD29C020E030E040EA0C
:104EF00051E4C501B4010E944DD41816FCF0D6014E
:104F00002D913D914D915C91C501B4010E94B6D89F
:104F10009B01AC01C301B2010E94B7D8F7016083C5
:104F2000718382839383D6018D929D92AD92BC92C0
:104F300013978A8D9B8D0E94B34026C0E8EAFDE05E
:104F400084918F010F5F1F4F882319F077D7F801E5
:104F5000F7CFEFE2F7E084918F010F5F1F4F8823B7
:104F600019F06CD7F801F7CF88E290E09A83898333
:104F700088EC90E09F8B8E8BBE016F5F7F4FCE01E0
:104F800046960E94844AEFC0B4E0CB0ED11C0C5F61
:104F90001F4FE4E0EE0EF11C0C30110509F051CF6B
:104FA0000E940B410E940E7783E992E09F8B8E8BCB
:104FB00004E610E01A830983BE016A5E7F4FCE01CA
:104FC00001960E94844A8AEB92E09F8B8E8B1A8313
:104FD0000983BE016A5E7F4FCE0101960E94844A1A
:104FE000C2C00E94FC5CBFC00E947357BCC00E943C
:104FF000E9C9B9C083E50E94BE31882319F00E9437
:10500000783101C081E091E089270E945E9BABC0AE
:10501000E7EAFEE084918F010F5F1F4F882319F0AC
:105020000DD7F801F7CFE7E6F7E084918F010F5F26
:105030001F4F882311F40C94381E00D7F801F5CFC8
:10504000E0E5F7E084918F010F5F1F4F882311F493
:105050000C946E1EF3D6F801F5CF4091350C5091AB
:10506000360C6091370C7091380C8DE497E00E94FB
:1050700083870C946E1E84918F010F5F1F4F8823CE
:1050800019F0DCD6F801F7CFE1E7F7E084918F0162
:105090000F5F1F4F882309F466C0D0D6F801F6CF02
:1050A00081E08093100283E50E94BE31811103C02C
:1050B0000E94C6CB58C00E947831811154C0F8CFED
:1050C000F090D504FF2009F1E7EAFEE084918F011A
:1050D0000F5F1F4F882319F0B1D6F801F7CF84E591
:1050E000ADD66F2D70E080E090E04AE00E9428424B
:1050F00080E2A4D60FEA12E0D8018D918D018823B9
:1051000011F40C946E1E9AD6F7CF1092920DE7EA26
:10511000FEE084918F010F5F1F4F882319F08ED618
:10512000F801F7CF6091920D70E080E897E00E945F
:10513000A0878AE083D617C0E7EAFEE084918F015A
:105140000F5F1F4F882319F079D6F801F7CF6091D0
:105150009A0D70919B0D82E997E00E94B98782E2D7
:105160006DD68AE06BD61092940D1092930D0E942A
:1051700068C470C4309711F4FC01319760E070E0AE
:105180000C94171780E00E94E87D0E94094283E595
:105190000E94BE31882309F449C00E94783101E0A1
:1051A00021E0482FBE016F5F7F4FCE0146960E94DF
:1051B00029456B017C019B01AC010E946ADB8111D6
:1051C00030C02CEA35EC47E257E36E897F89888D41
:1051D000998D0E94B7D8AB01BC018DE592E00E9489
:1051E0001C572CEA35EC47E257E369817A818B81C1
:1051F0009C810E94B7D8AB01BC0188E592E00E9477
:105200001C572CEA35EC47E257E3C701B6010E9470
:10521000B7D8AB01BC0183E592E00E941C578AE03D
:105220000DD60E94F0410E940E779DCF81E0B7CF4E
:10523000D7018C91882311F40C947D1BE7EAFEE0E2
:1052400084918F010F5F1F4F882319F0F7D5F80164
:10525000F7CFF70181917F01882311F0EFD5F9CFC6
:105260008AE0ECD50C947D1BCE2C61E08E2D0E9443
:105270003DA06D2D8E2D0E940EA00D2D10E061E041
:105280008E2D0E943DA00115110511F460E004C0AF
:105290000F3F110519F461E08E2DB1C0F701FF2712
:1052A000E55CF24FE4914E2F50E0FA013197E23184
:1052B000F10508F09DC08827EE58FF4F8F4F0C94E2
:1052C00073DC84B5806884BDD7BC9BC084B5806224
:1052D00084BDD8BC96C08091800080688093800097
:1052E00010938900009388008CC0809180008062B8
:1052F0008093800010938B0000938A0082C080917D
:10530000800088608093800010938D0000938C0053
:1053100078C08091B00080688093B000D092B300D4
:1053200070C08091B00080628093B000D092B400D1
:1053300068C08091900080688093900010939900DD
:10534000009398005EC080919000806280939000EE
:1053500010939B0000939A0054C080919000886045
:105360008093900010939D0000939C004AC0809110
:10537000A00080688093A0008091A0008F7B809324
:10538000A0001093A9000093A8003BC08091A0004A
:1053900080628093A0001093AB000093AA0031C0FC
:1053A0008091A00088608093A0001093AD000093CE
:1053B000AC0027C080912001806880932001109369
:1053C0002901009328011DC08091200180628093F3
:1053D000200110932B0100932A0113C0809120011A
:1053E00088608093200110932D0100932C0109C047
:1053F0000038110514F460E001C061E08C2D0E94BA
:105400000EA0F7E0EF16F10409F0ADCE1093790C81
:105410000093780CA8CE7BD70E9499D97093490D40
:105420006093480D80E00E94E2AF71D720E030E049
:105430004AEA52E40E944DD418161CF00E947E479E
:1054400002C00E94284A0E94048881E080930002E2
:105450001E8E1F8E18A219A21BA21CA21DA21EA284
:105460001A8E1FA25CE358A78CE189A796E49AA73D
:10547000C12CD12CA0E8EA2EBFEBFB2E812C912C65
:1054800054016091480D7091490D072E000C880B56
:10549000990B0E9453D4162F072F782E692E262F92
:1054A000372F482F592FB601C7010E944DD48823AA
:1054B000D1F020914F0D3091500D4091510D5091F0
:1054C000520D612F702F872D962D0E944DD4881F6D
:1054D0008827881F8A8FAAA1AA2349F0882339F038
:1054E0008091000240CE1C2D0D2D7E2C6F2C0E9431
:1054F000B1A06B017C01DC01CB012BA13CA14DA132
:105500005EA1821B930BA40BB50BB7FD38C0D7016E
:10551000C60188519C4FAF4FBF4F8BA39CA3ADA337
:10552000BEA30E94FE77E7E4F3E084912F019FEF92
:10553000491A590A882319F081D4F201F6CF81144F
:105540009104A104B104B9F0D501C401805F984D64
:10555000AF4FBF4FBC01CD016C197D098E099F096A
:1055600028EE33E040E050E00E9459D8CA01B9016A
:105570000E94D14202C08FE361D48AE05FD40E94CE
:10558000A4C50E94E54120904F0D3090500D4090F1
:10559000510D5090520D9101A201612F702F872D56
:1055A000962D0E94B6D89F7781149104A104B1046E
:1055B00049F420E030E040E85FE30E944DD487FFEB
:1055C0000BC008C020E030E040E450E40E9456DA0E
:1055D000181614F446015701AA8DAA2379F12E8DCD
:1055E0003F8D48A159A1211531054105510541F0D3
:1055F000D701C601821B930BA40BB50BB7FD1EC0D0
:105600009101A2016FA178A589A59AA50E94B6D89B
:1056100020E030E040EC5FE30E944DD487FD60CF96
:10562000D701C601805A9541AF4FBF4F8E8F9F8FD4
:10563000A8A3B9A32FA238A649A65AA68091000212
:10564000882309F44DCF81149104A104B10429F4F5
:10565000C12ED02EE72CF62C14CF90E1C91A97E278
:10566000D90AE108F108C818D908EA08FB08F7FECA
:1056700037CFEECF4CD60E9499D96F36710514F012
:105680006EE670E07093470D6093460D0E9497AFF1
:105690003ED620E030E040EA50E40E9456DA181688
:1056A00014F40E94284A81E0809300028091920DB8
:1056B00080934D031E8E1F8E18A219A21BA21CA23E
:1056C0001DA21EA21A8E1FA2ACE3A8A7BCE1B9A717
:1056D000E6E4EAA7C12CD12CE0E8EE2EFFEBFF2E8A
:1056E000812C912C54016091460D7091470D072E2D
:1056F000000C880B990B0E9453D4162F072F782E7D
:10570000692E262F372F482F592FB601C7010E9427
:105710004DD48823D1F02091410D3091420D40911C
:10572000430D5091440D612F702F872D962D0E94AF
:105730004DD4881F8827881F8A8FFAA1FF2349F03C
:10574000882339F0809100020ECD1C2D0D2D7E2C6A
:105750006F2C0E94B1A06B017C01DC01CB012BA15D
:105760003CA14DA15EA1821B930BA40BB50BB7FD11
:1057700038C0D701C60188519C4FAF4FBF4F8BA394
:105780009CA3ADA3BEA30E94FE77EBE4F3E084915B
:105790002F019FEF491A590A882319F04FD3F201BC
:1057A000F6CF81149104A104B104B9F0D501C4016C
:1057B000805F984DAF4FBF4FBC01CD016C197D0983
:1057C0008E099F0928EE33E040E050E00E9459D84E
:1057D000CA01B9010E94D14202C08FE32FD38AE0EF
:1057E0002DD30E94A4C50E94E5412090410D309028
:1057F000420D4090430D5090440D9101A201612F44
:10580000702F872D962D0E94B6D89F778114910412
:10581000A104B10449F420E030E040E85FE30E94D5
:105820004DD487FF0BC008C020E030E040E450E4D6
:105830000E9456DA181614F446015701AA8DAA23BD
:1058400079F12E8D3F8D48A159A1211531054105D2
:10585000510541F0D701C601821B930BA40BB50B78
:10586000B7FD1EC09101A2016FA178A589A59AA5D7
:105870000E94B6D820E030E040EC5FE30E944DD4B7
:1058800087FD60CFD701C601805A9541AF4FBF4F0A
:105890008E8F9F8FA8A3B9A32FA238A649A65AA678
:1058A00080910002882309F44DCF81149104A10452
:1058B000B10429F4C12ED02EE72CF62C14CF90E1A0
:1058C000C91A97E2D90AE108F108C818D908EA0804
:1058D000FB08F7FE37CFEECF0E94205088E54ED56B
:1058E000882319F05F9A1092E10589E547D588234E
:1058F00019F08A9A1092E2058AE540D5882319F0BA
:10590000479A1092E30585E439D5882309F42BCC16
:10591000129A29CC0E9420500E946AC524CC409043
:10592000C30C5090C40C6090C50C7090C60C809055
:10593000C70C9090C80CA090C90CB090CA0CA501DF
:105940009401C301B2010E944DD4811106C9209176
:10595000CB0C3091CC0C4091CD0C5091CE0CC501AC
:10596000B4010E944DD48111F8C88090D70C90905A
:10597000D80CA090D90CB090DA0C2091DB0C3091AF
:10598000DC0C4091DD0C5091DE0C2A8F3B8F4C8F4C
:105990005D8FC501B4010E944DD48111DEC82091F4
:1059A000DF0C3091E00C4091E10C5091E20C6A8DDB
:1059B0007B8D8C8D9D8D0E944DD48111CEC820E0B1
:1059C00030E0A901C701B6010E944DD48111C5C8BC
:1059D00020E030E0A901C301B2010E944DD4811141
:1059E000BCC820E030E0A901C501B4010E944DD43B
:1059F0008111B3C810E0BBC811110C9423190E9487
:105A00009F400C9436190E94205060E08F2D0E9418
:105A10003DA00F3FBFEF1B0759F48F2D0E94B74ADF
:105A200031E020E0892B09F030E0032F122F05C070
:105A30000130110561F000E010E08F2D0E94B74A9F
:105A40008017910709F48FCB0E94A4C5F6CF01E01F
:105A500010E0F3CFAE960FB6F894DEBF0FBECDBF09
:105A6000DF91CF911F910F91FF90EF90DF90CF903A
:105A7000BF90AF909F908F907F906F905F904F906E
:105A80003F902F900895CF92DF92EF92FF92CF93A5
:105A9000DF936B017C01EA012FE632E143E85AEB28
:105AA0000E9456DA87FD23C022E430E044E453E448
:105AB000C701B6010E944DD41816CCF0C880D98019
:105AC000EA80FB802FE632E143E85AEBC701B601DA
:105AD0000E9456DA87FD0BC0C1E022E430E044E4C6
